:020000040800F2
:10000000005000206D020008070200080F020008DF
:10001000170200081F020008270200080000000065
:100020000000000000000000000000002F02000897
:100030003B020008000000004702000853020008CD
:10004000B5020008B5020008B5020008B5020008B4
:10005000B5020008B5020008B5020008B5020008A4
:10006000B5020008B5020008B5020008B502000894
:10007000B5020008B5020008B5020008B502000884
:10008000B5020008B5020008B5020008B502000874
:10009000B5020008B5020008B5020008B502000864
:1000A000B5020008B5020008B5020008B502000854
:1000B000B5020008B5020008B5020008B502000844
:1000C000B5020008B5020008B5020008B502000834
:1000D000B5020008B5020008B5020008B502000824
:1000E000B5020008B5020008B502000800000000D3
:1000F0000000000000000000000000000000000000
:0C01000000000000000000005FF808F1A3
:10010C0010B5054C237833B9044B13B10448AFF345
:10011C0000800123237010BD0400002000000000AB
:10012C002403000808B5034B1BB103490348AFF384
:10013C00008008BD00000000080000202403000817
:10014C0080B582B000AF1E4B9B691D4A43F004037F
:10015C0093611C4B1B681B4A23F00F031360194B54
:10016C001B68184A43F008031360164BDB68154AEA
:10017C0043F00103D360134B1B68124A23F0F003C6
:10018C001360104B1B680F4A43F0200313600D4B98
:10019C009B6803F001037B607B68002B06D1094B45
:1001AC00DB68084A43F00203D36005E0054BDB68CB
:1001BC00044A23F00203D360322000F005F8E6E78E
:1001CC00001002400008014080B485B000AF786098
:1001DC000023FB6003E000BFFB680133FB607B681E
:1001EC004FF4487202FB03F3FA689A42F3DB00BF48
:1001FC0000BF1437BD4680BC704780B400AF00BF51
:10020C00FDE780B400AF00BFFDE780B400AF00BFD6
:10021C00FDE780B400AF00BFFDE780B400AF00BFC6
:10022C00FDE780B400AF00BFBD4680BC704780B412
:10023C0000AF00BFBD4680BC704780B400AF00BFAC
:10024C00BD4680BC704780B500AF00F02FF800BFF2
:10025C0080BD80B400AF00BFBD4680BC70470000BD
:10026C00FFF7F7FF0B480C490C4A002302E0D45867
:10027C00C4500433C4188C42F9D3094A094C0023E6
:10028C0001E013600432A242FBD300F021F8FFF727
:10029C0057FF7047000000200400002044030008B2
:1002AC000400002024000020FEE7000080B400AF12
:1002BC00054B1B781A46054B1B681344034A136005
:1002CC0000BFBD4680BC704700000020200000200D
:1002DC0070B500260C4D0D4C641BA410A64209D120
:1002EC0000F01AF800260A4D0A4C641BA410A64212
:1002FC0005D170BD55F8043B98470136EEE755F82B
:10030C00043B98470136F2E73C0300083C03000825
:10031C003C03000840030008F8B500BFF8BC08BC5B
:10032C009E467047F8B500BFF8BC08BC9E467047A7
:04033C003101000883
:040340000D010008A3
:0403440001000000B4
:040000050800026D80
:00000001FF
